:020000042000DA
:100000000000012099020020090300200B030020BA
:100010000D0300200F03002011030020000000004A
:10002000000000000000000000000000130300209A
:100030001503002000000000170300201903002012
:100040001B0300201D0300201F03002021030020AC
:10005000230300202503002027030020290300207C
:100060002B0300202D0300202F030020310300204C
:10007000330300203503002037030020390300201C
:100080003B0300203D0300203F03002041030020EC
:1000900043030020450300204703002049030020BC
:1000A0004B030020000000000000000000000000E2
:1000B0000000000000000000000000004D030020D0
:1000C0004F0300205103002053030020550300205C
:1000D00057030020590300205B0300205D0300202C
:1000E0005F030020610300206303002065030020FC
:1000F00067030020690300206B0300206D030020CC
:100100006F0300207103002073030020750300209B
:1001100077030020790300207B0300207D0300206B
:100120007F0300208103002083030020850300203B
:1001300087030020890300208B0300208D0300200B
:100140008F030020910300209303002095030020DB
:1001500097030020990300209B0300209D030020AB
:100160009F030020A1030020A3030020A50300207B
:10017000A7030020A9030020AB030020AD0300204B
:10018000AF030020B1030020B3030020B50300201B
:10019000B7030020B9030020BB030020BD030020EB
:1001A000BF030020C1030020C3030020C5030020BB
:1001B000C7030020C9030020CB030020CD0300208B
:1001C000CF030020D1030020D3030020D50300205B
:1001D000D7030020D9030020DB030020DD0300202B
:1001E000DF030020E1030020E3030020E5030020FB
:1001F000E7030020E9030020EB030020ED030020CB
:10020000EF030020F1030020F3030020F50300209A
:10021000F7030020F9030020FB030020FD0300206A
:10022000FF03002001040020030400200504002037
:1002300007040020090400200B0400200D04002006
:100240000F040020110400201304002015040020D6
:1002500017040020190400201B0400201D040020A6
:100260001F04002021040020230400202504002076
:1002700027040020290400202B0400202D04002046
:100280002F04002031040020330400203504002016
:100290003704002039040020684880476848002857
:1002A0000BD168486849694A884206D091421CBF10
:1002B00050F8043B41F8043BF8D165486549664A6B
:1002C000884206D091421CBF50F8043B41F8043BE1
:1002D000F8D162486249634A914218BF41F8040B61
:1002E000FAD1000000000000000000000000000043
:1002F000DFF874010FF2030E00474FF000004FF0DB
:100300000001DFF868F1FEE7FEE7FEE7FEE7FEE743
:10031000FEE7FEE7FEE7FEE7FEE7FEE7FEE7FEE7B5
:10032000FEE7FEE7FEE7FEE7FEE7FEE7FEE7FEE7A5
:10033000FEE7FEE7FEE7FEE7FEE7FEE7FEE7FEE795
:10034000FEE7FEE7FEE7FEE7FEE7FEE7FEE7FEE785
:10035000FEE7FEE7FEE7FEE7FEE7FEE7FEE7FEE775
:10036000FEE7FEE7FEE7FEE7FEE7FEE7FEE7FEE765
:10037000FEE7FEE7FEE7FEE7FEE7FEE7FEE7FEE755
:10038000FEE7FEE7FEE7FEE7FEE7FEE7FEE7FEE745
:10039000FEE7FEE7FEE7FEE7FEE7FEE7FEE7FEE735
:1003A000FEE7FEE7FEE7FEE7FEE7FEE7FEE7FEE725
:1003B000FEE7FEE7FEE7FEE7FEE7FEE7FEE7FEE715
:1003C000FEE7FEE7FEE7FEE7FEE7FEE7FEE7FEE705
:1003D000FEE7FEE7FEE7FEE7FEE7FEE7FEE7FEE7F5
:1003E000FEE7FEE7FEE7FEE7FEE7FEE7FEE7FEE7E5
:1003F000FEE7FEE7FEE7FEE7FEE7FEE7FEE7FEE7D5
:10040000FEE7FEE7FEE7FEE7FEE7FEE7FEE7FEE7C4
:10041000FEE7FEE7FEE7FEE7FEE7FEE7FEE7FEE7B4
:10042000FEE7FEE7FEE7FEE7FEE7FEE7FEE7FEE7A4
:10043000FEE7FEE7FEE7FEE7FEE70000C506002058
:100440000000000000000020000000204007002005
:100450004007002040070020440700200000000063
:100460004407002048070020D1060020A1040020F6
:1004700040F24473C2F200031A780AB901201870DE
:10048000704700BF40F24070C2F2000008B5036838
:100490002BB140F20003C0F2000303B1984708BD3E
:1004A00080B584B000AF00F041F84FF0000000F0DC
:1004B00079F841F6B750C0F2C14000F0B1F845F20A
:1004C0008720C1F2634000F09BF84CF6DD40CAF68D
:1004D000BB2000F0B5F803467B6000F051F841F610
:1004E000B750C0F2C14000F09BF845F28720C1F23E
:1004F000634000F085F843F2443000F0B7F803465B
:10050000FB6000F03DF841F6B750C0F2C14000F08A
:1005100087F843F24430C1F2221000F071F84FF036
:10052000280000F0B9F80346BB60FEE780B400AFD6
:1005300040F20003C4F205034FF0FF321A6040F2AC
:100540000003C4F2050341F6B752C0F2C1425A613A
:1005500040F20003C4F205034FF000021A7140F2AA
:100560000003C4F205034FF0FF321A6140F20003AA
:10057000C4F205034FF001029A60BD4680BC70478B
:1005800080B400AF40F20003C4F2050340F2000261
:10059000C4F20502926842F001029A60BD4680BC36
:1005A000704700BF80B485B000AF78604FF00003A3
:1005B000FB607B68182B09D07B68102B06D07B680A
:1005C000082B03D07B68002B00D000BE40F2000354
:1005D000C4F205039B68FB60FB6823F01803FB6013
:1005E000FA687B6842EA0303FB6040F20003C4F24E
:1005F0000503FA689A6007F11407BD4680BC70478E
:1006000080B483B000AF786040F20003C4F2050309
:100610007A681A6107F10C07BD4680BC704700BFBD
:1006200080B483B000AF786040F20003C4F20503E9
:100630007A685A6107F10C07BD4680BC704700BF5D
:1006400080B483B000AF786040F20003C4F20503C9
:100650007A681A6040F20003C4F205031B6818466A
:1006600007F10C07BD4680BC704700BF80B483B063
:1006700000AF0346FB8040F20003C4F20503FA8892
:100680001A8040F20003C4F205031B68184607F104
:100690000C07BD4680BC704780B483B000AF0346F2
:1006A000FB7140F20003C4F20503FA791A7040F2BC
:1006B0000003C4F205031B68184607F10C07BD468A
:1006C00080BC704780B400AFBD4680BC704700BF9F
:1006D00070B540F2387640F23875C2F20006C2F2C8
:1006E0000005761BB61006D0002455F824300134DE
:1006F0009847A642F9D840F2387540F23C76C2F2EB
:100700000005C2F20006761B00F00AF8B61006D00B
:10071000002455F8243001349847A642F9D870BD1A
:10072000F8B500BFF8BC08BC9E467047F8B500BFDE
:10073000F8BC08BC9E467047850400207104002068
:0407400000000000B5
:04000005200002993C
:00000001FF
